:100000000C9434000C9449000C9449000C94490061
:100010000C9449000C9449000C9449000C9449003C
:100020000C9449000C9449000C9449000C9449002C
:100030000C9449000C9449000C9449000C9449001C
:100040000C9449000C9449000C9449000C9449000C
:100050000C9449000C9449000C9449000C944900FC
:100060000C9449000C94490011241FBECFEFD8E036
:10007000DEBFCDBF11E0A0E0B1E0EEE2F2E002C0F1
:1000800005900D92A032B107D9F70E9472000C942E
:1000900015010C940000FC01919119168CF495B98E
:1000A0005E9A5D9A2FEF89EF90E02150804090405A
:1000B000E1F700C000009BB1907C9BB915B8ECCF74
:1000C000089585B95E985D9A2FEF89EF90E02150F1
:1000D00080409040E1F700C000008BB1807C8BB97C
:1000E00015B80895CF93DF9300D01F92CDB7DEB738
:1000F0008FEF84B98AB92FEF80E792E021508040DA
:100100009040E1F700C0000080917C00806C8093FB
:100110007C0080917A00876A80937A0081E00E9457
:1001200061002FEF80E792E0215080409040E1F79E
:1001300000C0000088E30E9461002FEF80E792E09A
:10014000215080409040E1F700C000008FE00E9405
:1001500061002FEF80E792E0215080409040E1F76E
:1001600000C0000080917A00806480937A00009142
:1001700078001091790080E091E00E944B0080ECC3
:100180000E9461008FE091E00E944B0088EC0E9489
:1001900061004AE0BE016F5F7F4FC8019695879569
:1001A000969587950E94E000CE0101960E944B0033
:1001B00088E191E00E944B0080E80E946100D7CF67
:1001C000BB274A3031F4992322F4BDE29095819502
:1001D0009F4F0C94EC00BB27FB015527AA27880FE3
:1001E000991FAA1FA41710F0A41B83955051B9F7AB
:1001F000A05DAA3308F0A95DA193009779F7B1112A
:10020000B1931192CB010C940501DC01FC01672F25
:1002100071917723E1F7329704C07C916D937083DD
:0E0220006291AE17BF07C8F30895F894FFCFA0
:10022E004349524355495420444947455354005479
:10023E00656D702843293D002020202020200000DD
:00000001FF
